:020000040800F2
:100000003008002089010008C31A0008D918000828
:10001000C11A00088F020008F52100080000000046
:100020000000000000000000000000005D1B000850
:10003000C702000800000000C51A00085F1B000886
:10004000A3010008A3010008A3010008A301000800
:10005000A3010008A3010008A3010008A3010008F0
:10006000A3010008A3010008A3010008A3010008E0
:10007000A3010008A3010008A3010008A3010008D0
:1000800091020008A3010008A3010008A3010008D1
:10009000A3010008A3010008A3010008A3010008B0
:1000A000C11B0008E51B0008D91B0008CD1B000878
:1000B000F11B0008FD1B0008A3010008A3010008B4
:1000C000A3010008A3010008A3010008A301000880
:1000D000A3010008A3010008E9210008A30100080A
:1000E000A3010008A3010008A301000800F002F822
:1000F00000F03AF80AA090E8000C82448344AAF188
:100100000107DA4501D100F02FF8AFF2090EBAE885
:100110000F0013F0010F18BFFB1A43F0010318473B
:10012000A8270000C8270000103A24BF78C878C16B
:10013000FAD8520724BF30C830C144BF04680C60ED
:10014000704700000023002400250026103A28BF35
:1001500078C1FBD8520728BF30C148BF0B60704739
:100160001FB51FBD10B510BD00F058F81146FFF7C0
:10017000F7FF02F0D1F800F076F803B4FFF7F2FFD2
:1001800003BC00F07DF8000009488047094800479B
:10019000FEE7FEE7FEE7FEE7FEE7FEE7FEE7FEE737
:1001A000FEE7FEE704480549054A064B7047000094
:1001B000BF1B0008ED0000083002002030080020BE
:1001C00030040020300400204FF0000200B5134638
:1001D00094469646203922BFA0E80C50A0E80C5067
:1001E000B1F12001BFF4F7AF090728BFA0E80C5018
:1001F00048BF0CC05DF804EB890028BF40F8042B11
:1002000008BF704748BF20F8022B11F0804F18BF7D
:1002100000F8012B7047704770477047754600F033
:100220002BF8AE4605006946534620F00700854688
:1002300018B020B5FFF7B6FFBDE820404FF000062C
:100240004FF000074FF000084FF0000B21F00701BE
:10025000AC46ACE8C009ACE8C009ACE8C009ACE801
:10026000C0098D46704710B50446AFF300802046A4
:10027000BDE81040FFF781BF00487047D001002063
:1002800001491820ABBEFEE7260002007047FEE7DA
:10029000014800F08DB800008C01002030B590F8C6
:1002A00040500124AC40C56B6C60046863604368D7
:1002B000102B036803D099600068C26030BD9A605B
:1002C0000068C16030BD704772B6FEE710B590F8A7
:1002D00021100022022905D00421816380F820200A
:1002E000012010BD01680B6823F00E030B6001684C
:1002F0000B6823F001030B6090F84030C46B0121C0
:1003000001FA03F3636080F8211080F82020104682
:1003100010BD000010B590F821100024022903D070
:100320000421816301243DE001680A6822F00E0285
:100330000A6001680A6822F001020A601A4A01682C
:10034000914201D1012121E0174A1432914201D199
:1003500010211BE0144A2832914201D1891515E081
:10036000114A3C32914201D189140FE00E4A5032B9
:10037000914202D14FF4803108E00B4A643291423D
:1003800002D14FF4801101E04FF08071064A083A23
:100390005160012180F82110002180F82010416B6C
:1003A00001B18847204610BD08000240806B7047AD
:1003B0002DE9F05FC16B0C6801680B68D0F840C094
:1003C000042202FA0CF2494DDFF824A1494E4A4FAB
:1003D000DFF828B1DFF828E122422CD05A072AD5CD
:1003E0000A68920603D40A6822F004020A600168CF
:1003F000A94201D1042219E0514501D1402215E062
:10040000B14202D14FF4806210E0B94202D14FF400
:1004100080420BE0594502D14FF4802206E071453D
:1004200002D14FF4800201E04FF080622F49083979
:100430004A60C16A3BE04FF0020808FA0CF818EA7B
:10044000040F4FF000094FF0010235D05FEA8378C6
:1004500032D50B689B0605D40B6823F00A030B60AA
:1004600080F821200168A94201D1022219E05145FA
:1004700001D1202215E0B14202D14FF4007210E008
:10048000B94202D14FF400520BE0594502D14FF46A
:10049000003206E0714502D14FF4001201E04FF046
:1004A0000072124908394A6080F82090816A002958
:1004B0001AD0BDE8F05F0847082505FA0CF525427B
:1004C00012D01B0710D50B6823F00E030B6090F8B9
:1004D0004010C36B02FA01F15960826380F8212059
:1004E00080F82090016BE2E7BDE8F09F0800024031
:1004F0001C0002403000024044000240580002400C
:100500006C00024030B528B308C8134914221944BE
:10051000B1FBF2F18900C163104981630221417787
:100520001A6843F6F0718A43D0E900142143D0E9F8
:1005300002452C43214304692143446921438469D2
:100540002143114319600021416301224277017761
:10055000084630BD012030BDF8FFFDBF000002405D
:1005600070B5044690F82000002501280CD0012029
:1005700084F8200094F821600020012E06D084F831
:1005800020000225284670BD022070BD022684F896
:100590002160A0632068066826F0010606602046F8
:1005A000FFF77CFEE06A00282068016802D041F075
:1005B0000E0106E021F0040101602068016841F0AD
:1005C0000A0101602068016841F001010160D9E77A
:1005D00070B5044600F008F90546601C02D00448D6
:1005E0000078044400F000F9401BA042FAD370BD2B
:1005F0005C0000202DE9F84FDFF8B8910024A9F144
:10060000040B23460F2709F1040AABF1040EC9E0DD
:100610000125A5402A40AA427DD1674ED1F804C0E9
:10062000ACEB0608B44532D014DCBCF1030F3AD071
:1006300009DCBCF1000F2AD0BCF1010F1CD0BCF1C9
:10064000020F31D11DE0BCF1110F17D0BCF1120F18
:100650002AD119E0B8F5881F19D006DCB8F5803F1B
:1006600015D0B8F5801F1FD111E0B8F5001F0ED0CE
:10067000B8F5041F18D10AE0CB6815E0CB681B1D44
:1006800012E0CB6808330FE0CB680C330CE08B68CA
:100690002BB1012B4FF0080303D0456104E0042384
:1006A00002E0056100E00023FF2A01D8064601E0D0
:1006B00000F104064FEA840501D9A5F12005D6F81A
:1006C000008007FA05FC28EA0C0803FA05F548EA59
:1006D0000508C6F800804D68ED0062D5374DAE695B
:1006E00046F00106AE61AD6924F0030605F0010590
:1006F0000095334D06EB050CDCF80850A607360FC5
:1007000007FA06F825EA0805DFF8B880404503D166
:100710004FF0000817E044E0DFF8AC80404502D11C
:100720004FF001080FE0DFF8A480404502D14FF000
:10073000020808E0DFF89880404502D14FF0030836
:1007400001E04FF0040808FA06F848EA0508CCF87A
:1007500008804D68D9F80060ED024D4601D516437A
:1007600000E096432E604D68DAF80060AD02554611
:1007700001D5164300E096432E604D68DBF800601B
:10078000AD035D4601D5164300E096432E604D68EB
:10079000DEF80060ED03754601D5164300E0964390
:1007A0002E60641C0D682A46E5407FF431AFBDE839
:1007B000F88F0000080401400000111000100240F2
:1007C0000000014000080140000C01400010014001
:1007D000001401408068084000D0012070470AB131
:1007E000016170470904FBE7014880687047000019
:1007F0005C000020024881680278114481607047E3
:100800005C000020074810B5016841F0100101604C
:10081000032000F075F80F2000F006F800F024F82F
:10082000002010BD0020024070B50D4D04464FF46D
:100830007A712878B1FBF0F00A490968B1FBF0F051
:1008400000F0DCFA48B9102C07D200222146501ED5
:1008500000F036F800206C6070BD012070BD000013
:100860005C000020680000200C4808B5816941F058
:1008700001018161816901F001010091C16941F0CB
:100880008051C161C06900F0805000900448416807
:1008900021F0E06141F00071416008BD00100240AC
:1008A00000000140002809DB00F01F0201219140F7
:1008B0004009800000F1E020C0F8001170470000FE
:1008C000F0B40E4B1B680C46C3F30223C3F10705BB
:1008D000042D00D90425191D072901D2002300E0A9
:1008E000DB1E012606FA05F1491E214099409E4073
:1008F000761E16403143F0BC01F0FEBC0CED00E06A
:10090000064900F0070208684FF6FF03184040EA66
:100910000220034A10430860704700000CED00E01D
:100920000000FA052DE9F0470F46050061D0434E5F
:10093000306800F00700B84209D2306820F00700A4
:1009400038433060306800F00700B84251D1286861
:100950003B4C810712D5400703D5606840F4E06046
:1009600060602878000703D5606840F460506060DC
:100970006068A96820F0F000084360602878C0072C
:1009800028D06868012810D02168022810D0890773
:1009900000292EDA616821F0030101436160FFF74D
:1009A00023FF804641F288390DE021688903EFE793
:1009B0008901EDE7FFF718FFA0EB0801494502D9CF
:1009C0000320BDE8F0876068696800F00C00B0EBB8
:1009D000810FEFD1306800F00700B8420BD93068C2
:1009E00020F0070038433060306800F00700B8425C
:1009F00001D00120E5E72878400705D56068E9685F
:100A000020F4E060084360602878000706D560683D
:100A1000296920F4605040EAC100606000F038F8B5
:100A20006168084AC1F30311515CC8400649086077
:100A300006480068FFF7F8FE0020C2E700200240E9
:100A400000100240AE28000868000020600000206E
:100A50000448054900684968044AC1F30221515C11
:100A6000C84070476800002000100240BE280008FF
:100A70000448054900684968044AC1F3C221515C31
:100A8000C84070476800002000100240BE280008DF
:100A90000E4A51680E4801F00C03042B11D0082BAC
:100AA0000FD10C48C1F38343C903C05C0AD5516818
:100AB000084AC1F34041921E515C054A5043B0FBC5
:100AC000F1F07047044948437047000000100240AD
:100AD00000127A009E28000800093D002DE9F84F19
:100AE000040070D02078C04DC00749D06868C0F3BA
:100AF0008100012807D06868C0F38100022809D16D
:100B00006868C00306D52868800339D56068002866
:100B1000E7D035E06068B0F5803F0BD010B1B0F59C
:100B2000A02F11D0286820F480302860286820F495
:100B3000802002E0286840F480302860606890B12E
:100B4000FFF752FE06460AE0286840F4802028603D
:100B5000F0E700BFFFF748FE801B642873D82868C1
:100B60008003F7D50CE0FFF73FFE064605E000BF27
:100B7000FFF73AFE801B6428F0D828688003F7D47A
:100B800020789A4E80074FF001094FF0000839D5C0
:100B9000686810F00C0F07D06868C0F38100022865
:100BA00009D16868C00306D42868800714D5206975
:100BB000012808D110E02069B0B1C6F80090FFF715
:100BC00013FE074605E00AE1FFF70EFEC01B0228F0
:100BD000C4D828688007F7D52868616920F0F80034
:100BE00040EAC10028600DE0C6F80080FFF7FCFD78
:100BF000074604E0FFF7F8FDC01B022823D8286849
:100C00008007F7D4207800072CD57948A169D9B19D
:100C1000C0F80090FFF7E8FD074604E0FFF7E4FDA9
:100C2000C01B02280FD8686A8007F7D571484FF4B7
:100C3000FA510068B0FBF1F0009000BF0098411E2F
:100C40000091FAD20EE080E0C0F80080FFF7CCFD02
:100C5000074604E0FFF7C8FDC01B022875D8686A84
:100C60008007F7D42078400760D5E8690027C000E6
:100C700008D4E86940F08050E861E869012700F095
:100C8000805000905C480168C90513D40168834610
:100C900041F480710160FFF7A7FD824606E000BFC6
:100CA000FFF7A2FDA0EB0A0064284ED8DBF8000095
:100CB000C005F5D5E06801280AD008B1052813D091
:100CC000286A20F001002862286A20F0040002E06F
:100CD000286A40F001002862E06841F2883B98B140
:100CE000FFF782FD82460BE0286A40F0040028628C
:100CF000EEE700BFFFF778FDA0EB0A0159455AD88F
:100D0000286A8007F6D50CE0FFF76EFD824605E005
:100D1000FFF76AFDA0EB0A0159454CD8286A800705
:100D2000F6D41FB1E86920F08050E861E06988B32B
:100D30006968C1F38101022944D00228C6F86080A5
:100D400004D0FFF751FD044638E034E0FFF74CFDD6
:100D5000074604E0FFF748FDC01B02282BD828688F
:100D60008001F7D4206AB0F5803F05D16868A1689A
:100D700020F4003008436860D4E90801084369683A
:100D800021F4741108436860C6F86090FFF72CFDE9
:100D9000044606E025E000BFFFF726FD001B022801
:100DA00009D828688001F7D51BE000BFFFF71CFDBC
:100DB000001B022802D90320BDE8F88F28688001B3
:100DC000F4D40EE00128F7D06868226A00F480317C
:100DD000914204D1616A00F47010884201D0012070
:100DE000EAE70020E8E7000000100240000042426D
:100DF00080044242680000200070004010B5401E90
:100E0000B0F1807F01D3012010BD4FF0E02460617C
:100E10000F21601701F070FA0020A0610720206107
:100E2000002010BD7047704770B590F83C20012A33
:100E300026D0012480F83C40022280F83D2003683F
:100E40005A689D6822F070060A6832435A600D4B5A
:100E500002689A4208D0B2F1804F05D00A4B9A42FC
:100E600002D00A4B9A4204D1496825F08003194305
:100E7000916080F83D40002180F83C10084670BD2C
:100E8000022070BD002C014000040040000800401A
:100E900010B5040003D094F83D0010B107E0012024
:100EA00010BD002084F83C00204600F01FF802200E
:100EB00084F83D00211D206800F0A6FE012084F882
:100EC000460084F83E0084F83F0084F8400084F82F
:100ED000410084F8420084F8430084F8440084F818
:100EE000450084F83D00002010BD000008B52A4AE6
:100EF00001682A48914226D1816941F400618161EB
:100F00008069002200F40060009011461820FFF76D
:100F1000D7FC1820FFF7C6FC002211461920FFF766
:100F2000CFFC1920FFF7BEFC002211461A20FFF764
:100F3000C7FC1A20FFF7B6FC002211461B20FFF762
:100F4000BFFC1B2013E0B1F1804F14D0144A914232
:100F500020D1C16941F00201C161C069002200F0E5
:100F60000200009011461D20FFF7AAFC1D20BDE8DD
:100F70000840FFF797BCC16941F00101C161C06938
:100F8000002200F00100009011461C20FFF798FCA1
:100F90001C20ECE708BD0000002C014000100240BE
:100FA0000004004090F83D10012901D00120704755
:100FB000022180F83D100168CA6842F00102CA604F
:100FC00000680B49884208D0B0F1804F05D009492C
:100FD000884202D00849884204D1816801F00701A3
:100FE000062903D0016841F001010160002070472B
:100FF000002C0140000400400008004070B5044689
:1010000090F83C000025012817D0012684F83C60A8
:10101000022084F83D002068826822F0770222F4E2
:101020007F4282600868502838D00DDC20284FD0DD
:1010300005DC90B3102811D14AE0022070BD3028A1
:1010400046D040280AD13BE060282FD070280DD030
:10105000B0F5805F03D0B0F5005F12D0012584F8B1
:101060003D60002084F83C00284670BDCB68D1E983
:101070000121206800F011FE2068816841F07701AD
:1010800009E0CB68D1E90121206800F006FE206864
:10109000816841F480418160E1E719E0CA684968EC
:1010A000206800F0AFFE5021206806E0CA68496859
:1010B000206800F0B8FE6021206800F0F8FDCEE75F
:1010C000CA684968206800F09DFE40212068F4E766
:1010D000226801461046F0E770472DE9F0410446CA
:1010E0000068C66805694FF00007A90713D5B10766
:1010F00011D5F91E016101202077206880698007E1
:10110000204602D0FFF7E8FF04E000F0AFF82046E9
:1011100000F041F92777680716D5700714D52168C4
:101120006FF004000861022020772068806910F4C5
:10113000407F204602D0FFF7CFFF04E000F096F892
:10114000204600F028F92777280715D5300713D552
:1011500021686FF008000861042020772068C069CA
:101160008007204602D0FFF7B7FF04E000F07EF8CA
:10117000204600F010F92777E80616D5F00614D5BA
:1011800021686FF010000861082020772068C0698E
:1011900010F4407F204602D0FFF79EFF04E000F0ED
:1011A00065F8204600F0F7F82777E80708D0F00741
:1011B00006D021686FF001000861204600F03AF97E
:1011C000280608D5300606D521686FF08000086132
:1011D0002046FFF727FE680608D5700606D5216869
:1011E0006FF040000861204600F04AF9A8060AD5D1
:1011F000B00608D521686FF0200008612046BDE8E0
:10120000F041FFF710BEBDE8F081000000B585B0E9
:10121000002100910191029103910068B0F1804F8B
:101220001BD10F48816941F00801816180696946DD
:1012300000F0080004904FF400600090022001903C
:1012400003900848FFF7D6F90748416821F4407138
:1012500041F0E06141F40071416005B000BD000063
:1012600000100240000C014000000140704770B5C2
:10127000044690F83C0000260D4601280FD00120BE
:1012800084F83C006AB1042A1DD0082A2FD00C2A09
:101290003FD00126002084F83C00304670BD02207B
:1012A00070BD206800F00CFD2068816941F00801E4
:1012B00081612068816921F0040181612068816970
:1012C0002A69114311E0206800F022FD206881693D
:1012D00041F4006181612068816921F4806181614C
:1012E000206881692A6941EA02218161D2E7206888
:1012F00000F03AFD2068C16941F00801C161206831
:10130000C16921F00401C1612068C1692A691143E2
:1013100011E0206800F054FD2068C16941F40061CB
:10132000C1612068C16921F48061C1612068C1691F
:101330002A6941EA0221C161ACE710B5040003D07B
:1013400094F83D0010B107E0012010BD002084F8A2
:101350003C00204600F01EF8022084F83D00211DCC
:10136000206800F051FC012084F8460084F83E001B
:1013700084F83F0084F8400084F8410084F842007B
:1013800084F8430084F8440084F8450084F83D0064
:10139000002010BD7047704710B50446022249B1C5
:1013A00004290ED0082913D094F84100012816D042
:1013B000012010BD94F83E000128F9D184F83E20A8
:1013C0000FE094F83F000128F2D184F83F2008E0B4
:1013D00094F840000128EBD184F8402001E084F823
:1013E00041200122206800F04BFC0F492068884210
:1013F00003D1426C42F4004242642068884208D023
:10140000B0F1804F05D00949884202D0084988428E
:1014100004D1816801F00701062903D0016841F079
:1014200001010160002010BD002C014000040040BB
:101430000008004070B50F4988421AD10E4D1021A6
:101440002846FFF7C7F90D4C202120712846FFF7E9
:10145000C1F960712279217840EA420040EA8100B6
:1014600000F00F0004F14001207008562169081AAD
:10147000206170BDFC000020000801400000002039
:101480007047704770B5044620680C3050E8001F64
:1014900021F4907140E80012002AF5D12068143040
:1014A00050E8001F21F0010140E80012002AF5D1A8
:1014B000206B012809D120680C3050E8001F21F072
:1014C000100140E80012002AF5D1206840694FF071
:1014D0000005400615D52068143050E8001F21F0A3
:1014E000400140E80012002AF5D1E06B48B14563A5
:1014F000E06BFEF7EBFE20B1E06BFEF757FF202814
:1015000006D0E585202084F842002563002070BDC8
:1015100010206064032070BD70470000F8B50168BA
:1015200004460868CA684B6910F00F0F4FF00005B9
:1015300059D003F0010602F49077374365D0C10714
:1015400005D0D10503D5616C41F00101616441070B
:1015500005D5D90703D0616C41F0020161648107B0
:1015600005D5D90703D0616C41F00401616401071E
:1015700007D502F02001314303D0616C41F008012E
:101580006164616C00293AD0800604D5900602D5CA
:10159000204600F023FD20684069616CC0F3801094
:1015A000090700D460B3204600F0E3FC20684069DE
:1015B000400621D52068143050E8001F21F040017A
:1015C00040E80012002AF5D1E06BA8B16D494163F3
:1015D000E06BFEF79FFE002811D0E06B416B01B07D
:1015E000BDE8F040084783060FD593060DD5204689
:1015F000BDE8F84000F0F2BC2046FFF78DFFF8BDD3
:101600002046FFF789FF6564F8BD266B2023012E75
:101610007CD1C6067AD5D60678D508684868009089
:1016200048694FF00206400640D5E16B0868406803
:101630000004000CE8D0A28D8242E5D9E0858869DB
:1016400020282DD020680C3050E8001F21F4807134
:1016500040E80012002AF5D12068143050E8001F3D
:1016600021F0010140E80012002AF5D12068143071
:1016700050E8001F21F0400140E80012002AF5D197
:1016800084F84230256320680C3050E8001F21F0B8
:10169000100140E80012002AF5D1E06BFEF716FEBB
:1016A0006663A08DE18D401A81B22AE0A08DE18DA4
:1016B000401A81B2E08D0028A6D00029A4D022686B
:1016C0000C3252E8000F20F4907042E80007002F1F
:1016D000F5D12068143050E8002F22F0010240E8D4
:1016E0000027002FF5D184F84230256320680C30A4
:1016F00050E8002F22F0100240E80023002BF5D123
:1017000066632046FFF7BDFEF8BDFFE705062BD553
:10171000150629D594F841002128F5D1A068B0F527
:10172000805F01D12069B0B1206A411C216221682B
:1017300000784860E08C401E0004000CE084E3D197
:101740002068C16821F08001C1602068C16841F053
:101750004001C160D8E7206A0088C0F308004860F3
:10176000206A801C2062E5E74006CDD55006CBD527
:10177000CA68204622F04002CA6084F8413000F076
:10178000AAF8C1E7751E000870B5040004D094F8EB
:101790004100002510B106E0012070BD84F84050E2
:1017A000204600F023F8242084F841002068C16816
:1017B00021F40051C160204600F072FC20680169EC
:1017C00021F4904101612068416921F02A014161C1
:1017D0002068C16841F40051C1606564202084F82C
:1017E000410084F842006563002070BD70B586B08A
:1017F000002506460095019502950395006822494B
:1018000088423FD12149C86940F40030C861C869A5
:1018100000F400300490886940F004008861886911
:101820001B4C00F004000490042000900220019062
:101830000320039069462046FEF7DCFE0820CDE930
:101840000005694620460295FEF7D4FE124C114869
:10185000C4E900058020C4E9025020202561C4E9C4
:1018600005502046E561FEF74DFE08B1FEF72CFD60
:10187000F4630022114626206662FFF721F8262035
:10188000FFF710F806B070BD0044004000100240A1
:10189000000801406C0002408C01002090F84230AA
:1018A000202B01D00220704721B11AB1002303631D
:1018B00000F052BC012070470449884204D10C2238
:1018C00003490248FFF7EABF7047000044010020C7
:1018D0005000002070477047FEE7000070B586B0EA
:1018E00000241C480094019402940394816941F0FF
:1018F00004018161816901F004010491816941F071
:10190000080181618069144E00F0080004900022F3
:1019100040F201413046FEF762FF7020CDE900043D
:1019200069460E480294FEF765FE01250095CDE953
:1019300001540224694630460394FEF75BFE6002C0
:101940000090CDE90154694630460394FEF752FEFB
:1019500006B070BD00100240000C014000080140BC
:1019600010B586B0002417480094019402940394A3
:1019700004941349059401603F21C0E901140A2130
:10198000C0E9031444618461FFF782FA08B172B6BA
:10199000FEE74FF48050009069460A48FFF72EFB9F
:1019A00008B172B6FEE7049404A906480594FFF74F
:1019B0003BFA002801D072B6FEE706B010BD000069
:1019C000002C01406C00002010B58EB0002407945C
:1019D000089409940A940B941C2168460C94FEF711
:1019E000F3FB1D484FF0804101600621C0E901145E
:1019F0006421C0E903148461FFF74AFA08B172B6A2
:101A0000FEE74FF48050079007A91348FFF7F6FA56
:101A100008B172B6FEE71048FFF78FFC08B172B646
:101A2000FEE70B940BA90C480C94FFF7FDF908B1E5
:101A300072B6FEE76020CDE9000402940C226946EC
:101A400005480494FFF713FC08B172B6FEE702489C
:101A5000FFF7DCFB0EB010BDB400002010B586B05F
:101A600000241648009401940294039404941249AB
:101A7000059401600621C0E901146421C0E9031442
:101A80008461FFF705FA08B172B6FEE74FF48050A3
:101A9000009069460948FFF7B1FA08B172B6FEE74F
:101AA000049404A905480594FFF7BEF9002801D065
:101AB00072B6FEE706B010BD00040040FC00002036
:101AC000FEE7FEE77047000070B50C22214922486E
:101AD000FFF7E4FE1F48A0F150040178FA2902D173
:101AE000C07AC8281DD0A078002550B91A48FFF741
:101AF000C9FC1948D83800684562A069E061012036
:101B0000A070154848380068406A642808D30C2241
:101B100010491148FFF7C2FEA069401CA061A570E2
:101B200070BD0C49E0782039012808D0022809D07E
:101B300003280BD00428F3D1B1F9060004E0B1F971
:101B4000000001E0B1F90200606170BDB1F904006C
:101B5000FAE7000050000020440100207047FEF723
:101B600049BE30B58FB028216846FEF72DFB142101
:101B70000AA8FEF729FB02250120049000951020F9
:101B8000059000244FF46010CDE9084007956846A1
:101B9000FEF7A4FF08B172B6FEE70F20CDE90A05F3
:101BA0004FF48060CDE90C4002210AA80E94FEF7A4
:101BB000B9FE002801D072B6FEE70FB030BD704705
:101BC0000148FFF78ABA00006C0000200148FFF7C7
:101BD00084BA00006C0000200148FFF77EBA0000C4
:101BE0006C0000200148FFF778BA00006C0000206C
:101BF0000148FFF772BA0000B40000200148FFF767
:101C00006CBA0000FC000020F0B50268194B1A4CB9
:101C10001A4D4FF08047984205D0B84203D0A042F9
:101C200001D0A84203D122F070064A68324398429C
:101C300005D0B84203D0A04201D0A84203D122F47B
:101C40004074CA6822434C6922F080022243026039
:101C50008A68C2620A688262984201D10969016396
:101C6000012141610169C90703D0016921F0010126
:101C70000161F0BD002C014000040040000800405C
:101C800010B501F01F030121046A99408C430462DE
:101C9000016A9A401143016210BD10B5846842EA9E
:101CA000032224F47F440A432243826010BD8268E9
:101CB00022F070020A4342F0070181607047000081
:101CC00030B5036A026A22F0010202624268846946
:101CD00024F073050C682C4323F002058B682B431A
:101CE0000A4DA8420BD123F00805CB6822F44072BC
:101CF0002B434D6923F0040315438A692A4342604C
:101D0000846149684163036230BD0000002C0140DA
:101D100030B5026A036A23F01003036243688469E2
:101D20000D6824F4E64444EA05248D6822F020027C
:101D300042EA05120B4DA8420ED1CD6822F0800276
:101D400042EA05124D6923F4406343EA85038D6935
:101D500022F0400243EA850343608461496881635D
:101D6000026230BD002C014030B5036A026A22F4E1
:101D7000807202624268C46923F4007324F0730520
:101D80000C682C438D6843EA05230C4DA8420ED104
:101D9000CD6823F4006343EA05234D6922F44052E1
:101DA00042EA05128D6923F4806342EA051242601B
:101DB000C4614968C163036230BD0000002C01406A
:101DC00030B5046A026A22F4805202624268C36932
:101DD0000D6823F4E64343EA05238D6824F4005498
:101DE00044EA0534064DA84204D14D6922F48042EC
:101DF00042EA85124260C36149680164046230BDF1
:101E0000002C014010B5036A046A24F00104046246
:101E1000846924F0F00444EA021423F00A020A431D
:101E20008461026210BD10B5036A046A24F01004D4
:101E30000462846923F0A00324F4704444EA02326B
:101E400043EA01118261016210BD0000084830F8C8
:101E5000011F4ABA064920390A80428852BA4A808C
:101E6000828852BA8A80C08840BAC8807047000011
:101E70005000002010B5406A0021C185C184FFF7E1
:101E80004BFB10BD70B5446A2068406994F841105E
:101E9000C0F3C0100025212904D118B1E5842046E3
:101EA00000F08EF82068406994F84210C0F380106A
:101EB000222904D118B1E585204600F05AF8606C5B
:101EC00040F0100060642046FFF726FB70BD10B59F
:101ED0000146406A096809684FF0000289062ED45D
:101EE000C28501680C3151E8003F23F4807341E85A
:101EF0000034002CF5D10168143151E8003F23F083
:101F0000010341E80034002CF5D10168143151E897
:101F1000003F23F0400341E80034002CF5D120219C
:101F200080F84210016B012909D101680C3151E898
:101F3000003F23F0100341E80034002CF5D1426348
:101F4000016B012902D0FFF7B7FC10BD818DFFF7AF
:101F500098FA10BD10B5406A01214163016B012957
:101F600002D0FFF7B7FC10BD818D4908FFF789FA51
:101F700010BD01680C3151E8002F22F4907241E845
:101F80000023002BF5D10168143151E8002F22F015
:101F9000010241E80023002BF5D1016B012909D191
:101FA00001680C3151E8002F22F0100241E80023B3
:101FB000002BF5D1202180F84210002101637047E9
:101FC00001680C3151E8002F22F0C00241E80023E3
:101FD000002BF5D1202180F84110704708B590F80A
:101FE0004210222901D0022008BD82684FF480539C
:101FF0009A4201D1016921B1816A9A421BD04AB14A
:102000000AE00268816A5268C2F308020A80816AA3
:10201000891C08E0026972B10268526802F07F020E
:102020000A70816A491C8162C18D491E0904090C2C
:10203000C18503D01BE002685268F1E70168CA68F5
:1020400022F02002CA600168CA6822F48072CA6065
:1020500001684A6922F001024A61202180F8421099
:1020600000214163026B012A03D0FFF725FC002009
:1020700008BD016301680C3151E8002F22F0100205
:1020800041E80023002BF5D101680A68D20602D589
:102090000A6849680091818DFFF7F3F9E7E70000CE
:1020A00070B5044600680169E26821F440511143AB
:1020B00001612169A0680843616908432168CA6811
:1020C00041F20C639A430243CA6020684169A269E5
:1020D00021F44071114341611E492068884202D1B8
:1020E000FEF7C6FC01E0FEF7B3FC00EBC00101EB1C
:1020F0000012606864218000B2FBF0F3B3FBF1F3DF
:102100006FF018067343B2FBF0F5B2FBF0F605EB87
:102110008305322303EB0515B5FBF1F5B6FBF1F6AC
:1021200005F0F00505EB0615B2FBF0F6B2FBF0F09A
:10213000B0FBF1F06FF01802504306EB800003EBA8
:102140000010B0FBF1F0216800F00F002844886017
:1021500070BD00000038014038B5816204468285B8
:10216000002013466064222284F84220E56B1B4A5B
:10217000AA62E56B1A4AEA62E56B1A4A2A63E26BC5
:1021800050630A462168E06B091DFEF7E9F92068F3
:10219000016840680090206948B120680C3050E820
:1021A000001F41F4807140E80012002AF5D1206838
:1021B000143050E8001F41F0010140E80012002AED
:1021C000F5D12068143050E8001F41F0400140E88C
:1021D0000012002AF5D1002038BD0000CF1E0008F3
:1021E000551F0008851E00080148FFF797B9000039
:1021F00044010020FEE7000070B53A4CD4E9041019
:10220000401A00F132012062652902D34FF07E515D
:10221000E1604FF07C55E56000F05CFA294600F083
:1022200071FA00F00BFAC4E90E0105460E4660781B
:1022300000F02AF92A46334600F03AF9607802D2D3
:1022400000F022F90BE0404200F007F9D4E90E2338
:1022500000F0BEF905D26078404200F0FEF8C4E913
:102260000E01D4E90E0100F0BBF81F4DA060012162
:102270002846FEF7AFFAE0621C4AA06829151C4EFA
:1022800090420FDD01222846FEF7A9FA01221146ED
:102290002846FEF7A4FAA06800F0FCF9316808644B
:1022A00001201DE0134A90424FF0000210D9284649
:1022B000FEF795FA012211462846FEF790FAA0682B
:1022C00080F0004000F0E6F931680864022007E081
:1022D00001212846FEF783FA3168002008640320B4
:1022E000A06270BD00000020000C01400000A04171
:1022F000B40000200000A0C10907090E002804DB7B
:1023000000F1E02080F80014704700F00F0000F1A9
:10231000E02080F8141D704708B5FEF773FAFFF748
:1023200020FCFFF7DBFA2A48416941F001014161D5
:102330004069002200F00100009011461020FEF7D5
:10234000BFFA1020FEF7AEFAFFF73EFBFFF786FB61
:10235000FFF706FB20481F490C2201604FF416517D
:10236000416000218160C160C0E904128161C161E6
:10237000FFF70AFA08B172B6FEE71748D838FEF739
:1023800011FE15489038FEF70DFE13484838FEF749
:1023900009FE11480C219038FEF7FEFF4FF4FA6554
:1023A0006E420E4CFFF790FBFFF750FDFFF724FF46
:1023B0006069A84201DB656102E0B04200DC666151
:1023C000606A401C60620520FEF702F9EAE700003F
:1023D00000100240004400404401002000000020A2
:1023E00021F00042A2F16052B2F5801F01F00043DB
:1023F00028BFD2F17F6C0BD95FEA001C43EAC2020E
:1024000042EB507018BF704728BF20F001007047A2
:10241000B2F5801FBCBF184670474FEA410C1CF54F
:10242000001F02D2084600F034BA70B500F07CF804
:1024300000000089FFF7F6BF4FF00040A0F58000D4
:102440007047491058BFC1F140415B1058BFC3F1FC
:1024500040438B42EFF30080704710F0004248BFCA
:102460004042B0FA80F310FA03F10AD0C3F11D0321
:1024700003F580634FEA415002EB035202EBD12196
:1024800070474FF000007047B0FA80F310FA03F184
:102490000AD0C3F11D0303F580634FEA41504FEAB0
:1024A000035202EBD12170474FF00000704700004B
:1024B00051EA030C17D41CF5801F58BFBCF5801FD0
:1024C00000F10680994218BF704708BF90427047DC
:1024D00007D711F5801F58BF13F5801F19D49942F3
:1024E0007047894270471CF5801F08D5BCF5801FD6
:1024F000F7D58B4218BF704708BF824270474FF430
:10250000001C1CEB410F38BF1CEB430F01D28B4268
:10251000704770B500F008F8922449004FF0005160
:102520004FF08053FFF78DBF0EF1020E2EF0030E19
:102530005EF8046B364205D4012A43EB030515F51A
:10254000001F12D8012841EB010C1CF5001F0CD80C
:102550000ED14FEAD17C15F5001F0CEB4C0C0CF1A1
:10256000020C08BF4CEBD37C04E04FF0080C01E0F8
:102570004FEAD37C0CEB4C0526FA05F606F007066D
:10258000B6F1040C06D20EEB860CBDE870404CF0A0
:10259000010C6047DFE80CF0090B02024FF000412C
:1025A0004FF00000A1F5002170BD1946104601282A
:1025B00051EB010418BFD4F5001484BF002001F0D2
:1025C000004170BD0808A0F500114FEA31017047C5
:1025D00053EA010C17D41CF5801F58BFBCF5801FAF
:1025E00000F106808B4218BF704708BF82427047D7
:1025F00007D713F5801F58BF11F5801F19D48B42E0
:1026000070479B4270471CF5801F08D5BCF5801FA2
:10261000F7D5994218BF704708BF904270474FF4F2
:10262000001C1CEB430F38BF1CEB410F01D2994239
:1026300070470FB40CBC03BCFFF76BBF43004FEAFD
:10264000D30C4FEA3C0C43401FBF40070CF16051D4
:1026500013F0FE4F70471CF0006F03D100200CF008
:10266000004170470CF0004343EA507010B540EA57
:10267000CC0000F0C8F800BF000000924FEA000153
:10268000FFF7A0BF4FF000414FF00000A1F500217F
:1026900070470000C10DD1F19E0206DB4FEA002316
:1026A00043F0004323FA02F07047004207D54FEA97
:1026B0004001B1F1FE4F02D24FF00000704710B55B
:1026C00000F0A1F849922480002070476FEA2000B2
:1026D0007047000010F0004148BF4042B0FA80F35C
:1026E00010FA03F2C3F19D030BD051EAC35101EB81
:1026F0001220530638BF704700F1010008BF20F0D8
:10270000010070474FF47F0C1CEAD0121EBF1CEA78
:10271000D11392EA0C0F93EA0C0F00F0478090EA75
:10272000010F48BF42F480724FF0004C4CEA002089
:102730004CEA012102EB0302A0FB0113A2F5000207
:10274000002918BF43F001035B0028BF4FEA3303A1
:1027500042EB22425FEA132C4CEBC2502EBFBCEB83
:10276000436FB2F57C0F70474FEA036CBCF1004F2A
:1027700008BF20F00100B2F57C0F38BF70470BD5C1
:1027800082F0FF0212F5803FC8BF704700F1C040E1
:10279000D8BF00F00040704700F5000C5FEA4C0C19
:1027A00048BF7047B0F1C04000F073B890EA010F25
:1027B0000CEAD11348BF42F48072624538BF6345CA
:1027C00004D280EA010000F00040704710B500F02C
:1027D0001AF800BF8900013E00F007B800F009B800
:1027E0005FEA410C5FEA1C6C08D080EA010000F04F
:1027F00050B85FEA400C5FEA1C6CF6D14FF0004025
:10280000A0F5800070470EF1020E2EF0030E5EF868
:10281000044B244204D44FEA4102B2F17F4F11D855
:102820004FEA4003B3F17F4F0CD80ED14FEAD07C72
:10283000B2F17F4F0CEB4C0C0CF1020C08BF4CEBCF
:10284000D17C04E04FF0080C01E04FEAD17C0CEBA6
:102850004C0324FA03F404F00704B4F1040C06D288
:102860000EEB840CBDE810404CF0010C6047DFE833
:102870000CF0070802024FF00040A0F5800010BDE8
:102880000846420018BFD2F1807288BF00F00040B5
:1028900010BDFF2141EAD050C0057047010202037C
:1028A0000405060708090A0B0C0D0E0F1010000096
:1028B00000000000000001020304060708090000F0
:1028C0000000010203040000E828000800000020C6
:1028D0006C00000028010008542900086C0000204A
:1028E000C407000044010008001E000100000000B1
:1028F000000000000000803F000000000000000019
:1029000000000000000000000000000000000000C7
:1029100000000000000000000000000000000000B7
:10292000000000000000000000FF0100010000FFA7
:10293000FF0000010001FF00FA000000000000009D
:10294000000000C8010000001000000000000000AE
:0429500000127A00F7
:04000005080000ED02
:00000001FF
